:100000000C942A000C9447000C9447000C94470071
:100010000C9447000C9447000C9447000C94470044
:100020000C9447000C9447000C9447000C94470034
:100030000C9447000C9447000C9447000C94470024
:100040000C9447000C9447000C9447000C94470014
:100050000C94470011241FBECFE5D8E0DEBFCDBF12
:1000600010E0A0E6B0E0E2E7FFE002C005900D92EC
:10007000A637B107D9F710E0A6E7B0E001C01D929E
:10008000A637B107E1F70E9449000C94B7070C941A
:100090000000CF93DF9300D000D000D0CDB7DEB703
:1000A0000F2EF0E66F2EF0E07F2EF02D0F2EF6E0F3
:1000B000CF2EF02D0E94DA060E941D06DE01119659
:1000C000F3018C2D01900D928150E1F7DD240F2E6C
:1000D000FAE08F2E9924F02D0F2EF4E62F2E3324E4
:1000E000F02D0F2EF0E34F2E5524F02D0E945A06CE
:1000F000E1E0F0E0EC0FFD1FED0DF11D80838F3F7F
:10010000A9F3813451F08D3341F08B3231F08D32CF
:1001100021F08A3211F08F3219F40E946507CACF9C
:100120000E9444078D2D8F5F2FEF32E547E021506D
:1001300030404040E1F700C0000001E010E00C0F4B
:100140001D1F080F111D0E945A06D8018C938F3F66
:10015000D1F3813451F08D3341F08B3231F08D3257
:1001600021F08A3211F08F3219F40E946507A2CF74
:100170000E9444078D2D8E5F2FEF32E547E021501E
:1001800030404040E1F700C0000001E010E00C0FFB
:100190001D1F080F111D0E945A06D8018C938F3F16
:1001A000D1F3813411F08D3319F40E94650782CFA9
:1001B0000E9444078D2D8D5F2FEF32E547E02150DF
:1001C00030404040E1F700C0000001E010E00C0FBB
:1001D0001D1F080F111D0E945A06D8018C938F3FD6
:1001E000D1F3813451F08D3341F08B3231F08D32C7
:1001F00021F08A3211F08F3219F40E9465075ACF2C
:100200000E9444078D2D8C5F2FEF32E547E021508F
:1002100030404040E1F700C0000001E010E00C0F6A
:100220001D1F080F111D0E945A06D8018C938F3F85
:10023000D1F3813451F08D3341F08B3231F08D3276
:1002400021F08A3211F08F3219F40E94650732CF03
:100250000E944407B5E0DB0E2FEF32E547E0215066
:1002600030404040E1F700C00000ED2CFF2401E0E9
:1002700010E00C0F1D1F0E0D1F1D0E945A06D80105
:100280008C938F3FD1F38D3309F01EC20E94440737
:10029000EEEFFFEFEC0FFD1FEE0DFF1D80818B32A7
:1002A00069F08C3220F48A3209F011C2F3C08D3229
:1002B00009F478C08F3209F00AC291C1EDEFFFEF67
:1002C000EC0FFD1FEE0DFF1D4081ECEFFFEFEC0F7B
:1002D000FD1FEE0DFF1D808190E0880F991F9C018E
:1002E000220F331F220F331F820F931FFC01E40FD5
:1002F000F11DAF01EFEFFFEFEC0FFD1FEE0DFF1D46
:10030000808190E0880F991F9C01220F331F220FDC
:10031000331F820F931F840F951FFE01EE0DFF1DEB
:100320002081820F911D8C0100521440C801845617
:100330009040F3E084389F07C8F4C801B1010E94DF
:100340009007862F805D0E944407C801B4010E9477
:100350009007082FCB01B4010E949007805D0E9496
:100360004407802F805D0E944407B1C1C8010A97ED
:100370008A35910570F4C801B4010E949007082FD6
:10038000862F805D0E944407802F805D0E94440775
:100390009EC10A30110508F09AC1802F805D0E942D
:1003A000440795C1EDEFFFEFEC0FFD1FEE0DFF1DB4
:1003B0004081ECEFFFEFEC0FFD1FEE0DFF1D808184
:1003C00090E0880F991F9C01220F331F220F331FCB
:1003D000820F931FBC01640F711DFE01EE0DFF1D06
:1003E0008081A201481B5109EFEFFFEFEC0FFD1FC9
:1003F000EE0DFF1D808190E0880F991F9C01220F58
:10040000331F220F331F820F931F9A01281B390BB2
:10041000C901860F971F8C0100531040C8018456F4
:10042000904033E084389307C8F4C801B1010E94BA
:100430009007862F805D0E944407C801B4010E9486
:100440009007082FCB01B4010E949007805D0E94A5
:100450004407802F805D0E94440739C1C8010A9774
:100460008A35910570F4C801B4010E949007082FE5
:10047000862F805D0E944407802F805D0E94440784
:1004800026C10A30110508F022C1802F805D0E942C
:1004900044071DC1EDEFFFEFEC0FFD1FEE0DFF1D3B
:1004A0004081ECEFFFEFEC0FFD1FEE0DFF1D808193
:1004B00090E0880F991F9C01220F331F220F331FDA
:1004C000820F931F840F911DAC0140515240EFEFFA
:1004D000FFEFEC0FFD1FEE0DFF1D808190E0880FF8
:1004E000991F9C01220F331F220F331F820F931F6E
:1004F000FE01EE0DFF1D2081820F911D8051924063
:10050000489F8001499F100D589F100D1124C8016C
:10051000885E934043E28832940728F5C80168EE6C
:1005200073E00E949007862F805D0E944407C801F7
:10053000B1010E949007CB01B4010E949007805D39
:100540000E944407C801B4010E949007082FCB0104
:10055000B4010E949007805D0E944407802F805D57
:100560000E944407B4C0C8018456904053E08438C8
:100570009507C8F4C801B1010E949007862F805DDD
:100580000E944407C801B4010E949007082FCB01C4
:10059000B4010E949007805D0E944407802F805D17
:1005A0000E94440794C0C8010A978A35910570F4E7
:1005B000C801B4010E949007082F862F805D0E9419
:1005C0004407802F805D0E94440781C00A301105D6
:1005D00008F07DC0802F805D0E94440778C0EDEF59
:1005E000FFEFEC0FFD1FEE0DFF1D4081ECEFFFEF65
:1005F000EC0FFD1FEE0DFF1D808190E0880F991F0D
:100600009C01220F331F220F331F820F931F840F71
:10061000911D9C0120513240EFEFFFEFEC0FFD1FC9
:10062000EE0DFF1D608170E0660F771FCB01880F14
:10063000991F880F991F680F791FFE01EE0DFF1D8E
:100640008081680F711D60517240C9010E94A4072A
:100650008B01CB0184569040A3E084389A07C8F4FC
:10066000CB01B1010E949007862F805D0E94440754
:10067000C801B4010E949007082FCB01B4010E9469
:100680009007805D0E944407802F805D0E94440790
:100690001EC0CB010A978A35910570F4CB01B401D5
:1006A0000E949007082F862F805D0E944407802FAC
:1006B000805D0E9444070BC06A30710540F4862FAC
:1006C000805D0E94440703C00E946507F3CC2FEFB2
:1006D00031EE44E0215030404040E1F700C00000DE
:1006E00005CD823451F1833420F4813409F07BC08C
:1006F00007C0833409F43EC0843409F074C057C085
:10070000413069F42AB381E090E0AC0102C0440FAB
:10071000551F6A95E2F7BA01622B6ABB08952AB3A6
:1007200081E090E0AC0102C0440F551F6A95E2F7EA
:10073000BA01609562236ABB0895413069F427B31A
:1007400081E090E0AC0102C0440F551F6A95E2F7CA
:10075000BA01622B67BB089527B381E090E0AC013A
:1007600002C0440F551F6A95E2F7BA0160956223F3
:1007700067BB0895413069F424B381E090E0AC0197
:1007800002C0440F551F6A95E2F7BA01622B64BBA1
:10079000089524B381E090E0AC0102C0440F551FDE
:1007A0006A95E2F7BA016095622364BB089541300F
:1007B00069F421B381E090E0AC0102C0440F551F01
:1007C0006A95E2F7BA01622B61BB089521B381E01B
:1007D00090E0AC0102C0440F551F6A95E2F7BA01E0
:1007E0006095622361BB0895823451F1833420F413
:1007F000813409F07BC007C0833409F43EC08434DF
:1008000009F074C057C0413069F42BB381E090E027
:10081000AC0102C0440F551F6A95E2F7BA01622B82
:100820006BBB08952BB381E090E0AC0102C0440F94
:10083000551F6A95E2F7BA01609562236BBB089574
:10084000413069F428B381E090E0AC0102C0440F6C
:10085000551F6A95E2F7BA01622B68BB089528B369
:1008600081E090E0AC0102C0440F551F6A95E2F7A9
:10087000BA016095622368BB0895413069F425B3DD
:1008800081E090E0AC0102C0440F551F6A95E2F789
:10089000BA01622B65BB089525B381E090E0AC01FD
:1008A00002C0440F551F6A95E2F7BA0160956223B2
:1008B00065BB0895413069F422B381E090E0AC015A
:1008C00002C0440F551F6A95E2F7BA01622B62BB62
:1008D000089522B381E090E0AC0102C0440F551F9F
:1008E0006A95E2F7BA016095622362BB089582348B
:1008F000F1F0833420F4813409F04FC006C0833412
:1009000041F1843409F049C036C029B381E090E058
:10091000062E02C0880F991F0A94E2F730E0822366
:10092000932302C0959587956A95E2F7089526B3BB
:1009300081E090E0062E02C0880F991F0A94E2F72A
:1009400030E08223932302C0959587956A95E2F75C
:10095000089523B381E090E0062E02C0880F991F0E
:100960000A94E2F730E08223932302C0959587959D
:100970006A95E2F7089520B381E090E0062E02C068
:10098000880F991F0A94E2F730E08223932302C074
:10099000959587956A95E2F7089580E008958234E9
:1009A000B9F0833418F48134C9F505C08334E9F013
:1009B0008434A1F527C02BB381E090E0AC0102C0E4
:1009C000440F551F6A95E2F7BA0162276BBB089581
:1009D00028B381E090E0AC0102C0440F551F6A9536
:1009E000E2F7BA01622768BB089525B381E090E081
:1009F000AC0102C0440F551F6A95E2F7BA016227A5
:100A000065BB089522B381E090E0AC0102C0440FC1
:100A1000551F6A95E2F7BA01622762BB08958234D6
:100A200061F0833418F4813469F405C0833439F0FB
:100A3000843441F406C06ABB089567BB089564BB63
:100A4000089561BB0895823461F0833418F48134D1
:100A500069F405C0833439F0843441F406C06BBBBB
:100A6000089568BB089565BB089562BB08958234FC
:100A700061F0833418F4813471F405C0833439F0A3
:100A8000843449F406C089B3089586B3089583B3C6
:100A9000089580B3089580E00895823451F183343D
:100AA00020F4813409F07BC007C0833409F43EC0D0
:100AB000843409F074C057C0413069F42BB381E02D
:100AC00090E0AC0102C0440F551F6A95E2F7BA01ED
:100AD000622B6BBB08952BB381E090E0AC0102C0A8
:100AE000440F551F6A95E2F7BA01609562236BBB0C
:100AF0000895413069F428B381E090E0AC0102C070
:100B0000440F551F6A95E2F7BA01622B68BB08953E
:100B100028B381E090E0AC0102C0440F551F6A95F4
:100B2000E2F7BA016095622368BB0895413069F429
:100B300025B381E090E0AC0102C0440F551F6A95D7
:100B4000E2F7BA01622B65BB089525B381E090E01E
:100B5000AC0102C0440F551F6A95E2F7BA016095D7
:100B6000622365BB0895413069F422B381E090E0CF
:100B7000AC0102C0440F551F6A95E2F7BA01622B1F
:100B800062BB089522B381E090E0AC0102C0440F43
:100B9000551F6A95E2F7BA016095622362BB08951A
:100BA0006F70823481F0833418F48134F1F405C01D
:100BB000833479F08434C9F412C08BB3807F8BBB4B
:100BC0008BB3862B8BBB88B3807F88BB88B3862B87
:100BD00088BB85B3807F85BB85B3862B85BB82B3FD
:100BE000807F82BB82B3682B62BB08956295607F71
:100BF000823481F0833418F48134F1F405C08334F5
:100C000079F08434C9F412C08BB38F708BBB8BB373
:100C1000862B8BBB88B38F7088BB88B3862B88BB31
:100C200085B38F7085BB85B3862B85BB82B38F70F0
:100C300082BB82B3682B62BB089584E460E041E02C
:100C40000E94710384E461E041E00E94710384E446
:100C500062E041E00E94710384E463E041E00E94AD
:100C6000710384E464E040E00E94710384E465E081
:100C700040E00E94710384E466E040E00E9471035A
:100C800084E467E040E00E94710384E464E041E0B2
:100C90000E944D0584E465E041E00E944D0584E436
:100CA00066E041E00E944D0584E467E041E00E9477
:100CB0004D0508950F931F93CF93DF93CDB7DEB704
:100CC00060970FB6F894DEBF0FBECDBFDE01119660
:100CD000E6E6F0E080E101900D928150E1F700E05E
:100CE00084E460E041E00E94F40384E461E041E0D8
:100CF0000E94F40384E462E041E00E94F40384E48F
:100D000063E041E00E94F40384E4602F40E00E942D
:100D1000F40310E0612F6C5F84E40E947704882361
:100D200061F4E02FF0E0EE0FFF1FEE0FFF1FE10F69
:100D3000F11DEC0FFD1F818104C01F5F143051F7BE
:100D40000BC060960FB6F894DEBF0FBECDBFDF912B
:100D5000CF911F910F9108950F5F043009F68FEF27
:100D6000F0CF82E460E041E00E94F4038FE99FE06D
:100D70000197F1F700C0000082E460E040E00E94CB
:100D8000F4038FE99FE00197F1F700C00000089598
:100D9000682F81E40E94230582E461E040E00E9424
:100DA000F4030E94B1068FEC97E00197F1F700C0C1
:100DB000000008958FEF91EEA4E081509040A04094
:100DC000E1F700C0000081E460E041E00E947103AF
:100DD00081E461E041E00E94710381E462E041E06E
:100DE0000E94710381E463E041E00E94710381E4A9
:100DF00064E041E00E94710381E465E041E00E940B
:100E0000710381E466E041E00E94710381E467E0E0
:100E100041E00E94710382E460E041E00E947103BE
:100E200082E462E041E00E94710382E461E041E01B
:100E30000E94710382E462E040E00E94F40388E3D0
:100E40000E94C806AFECB7E01197F1F700C00000B0
:100E50008EE00E94C8068FEC97E00197F1F700C082
:100E6000000081E00E94C806AFE1BEE41197F1F7EF
:100E700000C0000086E00E94C8068FEC97E0019752
:100E8000F1F700C000000895682F81E40E94230557
:100E900082E461E041E00E94F4030E94B1068FEC1D
:100EA00097E00197F1F700C000000895CF93DF931A
:100EB000EC018881882331F021960E9444078991B2
:100EC0008823D9F7DF91CF91089581E00E94C80669
:100ED0008FE19EE40197F1F700C000000895282FEC
:100EE0002150223070F4613170F4662371F081304A
:100EF00019F4962F91580AC0823041F4962F9154DC
:100F000005C090E803C090E801C090E8892F0E94D6
:100F1000C8068FEC97E00197F1F700C00000089534
:100F2000AA1BBB1B51E107C0AA1FBB1FA617B7070F
:100F300010F0A61BB70B881F991F5A95A9F780952B
:100F40009095BC01CD01089597FB092E07260AD084
:100F500077FD04D0E5DF06D000201AF47095619586
:100F60007F4F0895F6F7909581959F4F0895F894D7
:020F7000FFCFB1
:100F7200FFFFFFFFFFFF3738392F3435362A313272
:060F8200332D41303D2B30
:00000001FF
